:100000000C9462000C948A000C948A000C948A0070
:100010000C948A000C948A000C948A000C948A0038
:100020000C948A000C948A000C948A000C948A0028
:100030000C948A000C948A000C948A000C948A0018
:100040000C943B050C948A000C9409050C94E30471
:100050000C948A000C948A000C948A000C948A00F8
:100060000C948A000C948A000000000024002700F1
:100070002A0000000000250028002B0000000008D6
:10008000000201000003040700000000000000005F
:1000900000000000230026002900040404040404D6
:1000A0000404020202020202030303030303010227
:1000B00004081020408001020408102001020408F6
:1000C0001020850511241FBECFEFD8E0DEBFCDBFC5
:1000D00011E0A0E0B1E0E4E6F3E102C005900D928A
:1000E000AE31B107D9F721E0AEE1B1E001C01D9218
:1000F000A73DB207E1F710E0C2E6D0E004C02197C7
:10010000FE010E94AA09C136D107C9F70E94D20593
:100110000C94B0090C940000CF92DF92EF92FF9202
:10012000CF93DF93B091CB01A0E08111AB2F8091F1
:10013000CC0190E0880F991FAC0140575F4FC090F1
:10014000D101D090D201E090D301F090D40130E001
:1001500020E0FA01C591D491E881B90190E080E0F6
:10016000EB23EA130AC02F5F3F4F6C157D058E0508
:100170009F0578F36FEF7FEFCB01DF91CF91FF9079
:10018000EF90DF90CF900895AF92BF92CF92DF9221
:10019000EF92FF920F931F93CF93DF936C017B013C
:1001A0008B01040F151FEB015E01AE18BF08C017CD
:1001B000D10759F06991D601ED91FC910190F08140
:1001C000E02DC6010995892B79F7C501DF91CF9103
:1001D0001F910F91FF90EF90DF90CF90BF90AF9065
:1001E0000895FC01538D448D252F30E0842F90E03D
:1001F000821B930B541710F0CF9608950197089522
:10020000FC01918D828D981761F0A28DAE0FBF2FEA
:10021000B11D5D968C91928D9F5F9F73928F90E040
:1002200008958FEF9FEF0895FC01918D828D9817AF
:1002300031F0828DE80FF11D858D90E008958FEFEC
:100240009FEF0895FC01918D228D892F90E0805CB5
:100250009F4F821B91098F739927089587E291E040
:100260000E94220121E0892B09F420E0822F0895C9
:1002700080E090E0892B29F00E942E0181110C94DE
:1002800000000895FC01A48DA80FB92FB11DA35A39
:10029000BF4F2C91848D90E001968F739927848FA6
:1002A000A689B7892C93A089B1898C9183708064C9
:1002B0008C93938D848D981306C00288F389E02D6A
:1002C00080818F7D80830895EF92FF920F931F931B
:1002D000CF93DF93EC0181E0888F9B8D8C8D9813F9
:1002E0001AC0E889F989808185FF15C09FB7F89405
:1002F000EE89FF896083E889F98980818370806451
:1003000080839FBF81E090E0DF91CF911F910F919B
:10031000FF90EF900895F62E0B8D10E00F5F1F4FAA
:100320000F731127E02E8C8D8E110CC00FB607FCB9
:10033000FACFE889F989808185FFF5CFCE010E9447
:100340004201F1CFEB8DEC0FFD2FF11DE35AFF4F72
:10035000F0829FB7F8940B8FEA89FB8980818062D5
:10036000CFCFCF93DF93EC01888D8823B9F0AA8992
:10037000BB89E889F9898C9185FD03C0808186FD60
:100380000DC00FB607FCF7CF8C9185FFF2CF8081AF
:1003900085FFEDCFCE010E944201E9CFDF91CF91E1
:1003A0000895CF93DF9390E0FC01E255FF4F249135
:1003B00086569F4FFC0184918823D1F090E0880FEE
:1003C000991FFC01E859FF4FA591B491FC01EE582B
:1003D000FF4FC591D491623071F49FB7F8943C916E
:1003E000822F809583238C93E8812E2B28839FBFB7
:1003F000DF91CF9108958FB7F894EC912E2B2C9329
:100400008FBFF6CF3FB7F89480911F0190912001E4
:10041000A0912101B091220126B5A89B05C02F3FD4
:1004200019F00196A11DB11D3FBFBA2FA92F982F1A
:100430008827BC01CD01620F711D811D911D42E015
:10044000660F771F881F991F4A95D1F708958F92DD
:100450009F92AF92BF92CF92DF92EF92FF924B01A9
:100460005C010E9402026B017C010E9402026C1975
:100470007D098E099F09683E734081059105A8F3A7
:1004800021E0821A9108A108B10888EEC80E83E025
:10049000D81EE11CF11C81149104A104B10429F7B8
:1004A000FF90EF90DF90CF90BF90AF909F908F9094
:1004B00008958F929F92AF92BF92EF92FF920F9307
:1004C0001F93CF93DF93CDB7DEB7C054D1400FB6A3
:1004D000F894DEBF0FBECDBF2FB7F89480912301F3
:1004E00090912401A0912501B09126012FBF409148
:1004F000CD015091CE016091CF017091D0018C015E
:100500009D01041B150B260B370BB901A801403DBB
:10051000574061057105A0F48091D501C05CDE4FA4
:100520000FB6F894DEBF0FBECDBFDF91CF911F9104
:100530000F91FF90EF90BF90AF909F908F90089594
:100540008093CD019093CE01A093CF01B093D001C1
:100550001092C8011092C7011092C6011092C501F5
:100560001092C40162E08091C9010E94D10161E052
:1005700070E080E090E00E94270261E08091C90174
:100580000E94D1018091C90190E0FC01E458FF4F25
:100590002491FC01E255FF4F3491FC01E656FF4FD8
:1005A000E491EE23D9F0222359F0233009F44BC013
:1005B00008F03EC0213009F44CC0223009F44DC08F
:1005C000F0E0EE0FFF1FEE58FF4FA591B4918FB7EB
:1005D000F894EC9130953E233C938FBF8091CA01F3
:1005E0008551823008F046C08BE291E10197F1F726
:1005F00062E08091C9010E94D1018091D60190E012
:100600008230910538F0880F991F880F991F059740
:100610000197F1F7F89480E00E948C006F3F7F4FC4
:100620008F4F9F4F71F51092D501789480E076CF6F
:100630002730B1F02830D1F0243009F0C1CF8091BB
:1006400080008F7D03C0809180008F778093800031
:10065000B7CF84B58F7784BDB3CF84B58F7DFBCF03
:100660008091B0008F778093B000AACF8091B000C6
:100670008F7DF9CF64E170E080E090E00E94270276
:10068000B7CF81E00E948C006F3F7F4F8F4F9F4F0D
:1006900051F2CE0101967C015E019FEBA91A9EEFFB
:1006A000B90A870180E00E948C00F80160837183A1
:1006B0008283938381E00E948C00F80164837583B8
:1006C00086839783085F1F4FA016B10659F7789469
:1006D00030E020E0F70180809180A280B3804481E7
:1006E000558166817781FFEF8F169F06AF06BF06A3
:1006F00031F04F3F0FEF50076007700719F4109269
:10070000D50194CFF90183E0F595E7958A95E1F756
:10071000EC53FE4F8081880F84169506A606B70617
:1007200018F180832F5F3F4F18E0E10EF11C283253
:10073000310581F64091C8012091C4018091C50125
:10074000280F3327331F8091C601280F311D809158
:10075000C701820F932F911D99274817190679F623
:1007600081E08093D501DACE8160DBCFFC0101907E
:100770000020E9F73197AF01481B590BBC0187E214
:1007800091E00C94C4008F929F92AF92BF920F930E
:100790001F93CF93DF93CDB7DEB7A1970FB6F89431
:1007A000DEBF0FBECDBF19A2423008F44AE08E0171
:1007B0000F5D1F4F842E912CB12CA12CA50194010B
:1007C0000E948809E62FB901CA01EA30F4F4E05D1D
:1007D000D801EE938D01232B242B252B79F790E064
:1007E00080E0109719F0CD010E94B603A1960FB6D4
:1007F000F894DEBF0FBECDBFDF91CF911F910F9157
:10080000BF90AF909F908F900895E95CE1CF4F9299
:100810005F926F927F928F929F92AF92BF92CF9290
:10082000DF92EF92FF920F931F93CF936B017C01A6
:10083000742EAC019B010E948309882399F082E108
:1008400091E0CF911F910F91FF90EF90DF90CF90AB
:10085000BF90AF909F908F907F906F905F904F90E0
:100860000C94B60346015701E894B7F82FEF3FEF19
:100870004FE75FE7C501B4010E94830981110DC0F4
:100880002FEF3FEF4FE75FE7C501B4010E94B907C3
:1008900018161CF486E191E0D4CF2FEF3FEF4FE71D
:1008A0005FE4C701B6010E94110918161CF48AE121
:1008B00091E0C7CF2FEF3FEF4FE75FECC701B601E5
:1008C0000E94B90787FDF3CF20E030E0A901C701FE
:1008D000B6010E94B90710E000E087FF0AC06DE290
:1008E00087E291E00E9464018C01F7FAF094F7F836
:1008F000F094C0E060E070E080E09FE37C1641F09F
:1009000020E030E040E251E40E94BE07CF5FF6CF26
:10091000A70196010E944D072B013C010E9430085F
:100920004B015C014AE00E94C3037C01E00EF11E12
:10093000CC23C1F1C501B4010E945F089B01AC0149
:10094000C301B2010E944C074B015C016EE287E2D9
:1009500091E00E946401E80EF91EC15018F120E0F8
:1009600030E040E251E4C501B4010E9416092B01B8
:100970003C010E9430084B01B12CA12C4AE0C5017A
:10098000B4010E94C303E80EF91EC501B4010E9420
:100990005F089B01AC01C301B2010E944C074B01EF
:1009A0005C01DBCFC701CF911F910F91FF90EF90BA
:1009B000DF90CF90BF90AF909F908F907F906F907F
:1009C0005F904F9008951F920F920FB60F921124CF
:1009D0002F933F934F935F936F937F938F939F9347
:1009E000AF93BF93EF93FF9387E291E00E944201A0
:1009F000FF91EF91BF91AF919F918F917F916F91F7
:100A00005F914F913F912F910F900FBE0F901F90CC
:100A100018951F920F920FB60F9211242F938F9358
:100A20009F93EF93FF93E0913701F091380180811C
:100A3000E0913D01F0913E0182FD1BC090818091CB
:100A400040018F5F8F7320914101821741F0E09147
:100A50004001F0E0E95DFE4F958F80934001FF91EA
:100A6000EF919F918F912F910F900FBE0F901F903C
:100A700018958081F4CF1F920F920FB60F92112418
:100A80002F933F938F939F93AF93BF9380912301B5
:100A900090912401A0912501B091260130911E0171
:100AA00023E0230F2D3758F50196A11DB11D20938A
:100AB0001E018093230190932401A0932501B093FC
:100AC000260180911F0190912001A0912101B091F8
:100AD00022010196A11DB11D80931F019093200159
:100AE000A0932101B0932201BF91AF919F918F916B
:100AF0003F912F910F900FBE0F901F90189526E8F1
:100B0000230F0296A11DB11DD2CFE7E2F1E01382BF
:100B1000128288EE93E0A0E0B0E084839583A68300
:100B2000B78384E091E09183808385EC90E09587A2
:100B3000848784EC90E09787868780EC90E0918BA7
:100B4000808B81EC90E0938B828B82EC90E0958B94
:100B5000848B86EC90E0978B868B118E128E138E91
:100B6000148EA4ECB1E084E015968C9315978BE07D
:100B700016968C931697E2EBF0E0E4911796EC93BF
:100B80001797EEE9F0E0E4911896EC93189740E897
:100B90005EE360E070E01D964D935D936D937C93F2
:100BA00050970895789484B5826084BD84B581603F
:100BB00084BD85B5826085BD85B5816085BD809128
:100BC0006E00816080936E001092810080918100A0
:100BD0008260809381008091810081608093810098
:100BE000809180008160809380008091B10084605A
:100BF0008093B1008091B00081608093B0008091BB
:100C00007A00846080937A0080917A008260809379
:100C10007A0080917A00816080937A0080917A00D6
:100C2000806880937A001092C100E0913701F091C2
:100C3000380182E08083E0913301F0913401108229
:100C4000E0913501F09136018FEC808310923F01E5
:100C5000E0913B01F0913C0186E08083E091390115
:100C6000F0913A01808180618083E0913901F091B7
:100C70003A01808188608083E0913901F0913A01E6
:100C8000808180688083E0913901F0913A01808110
:100C90008F7D808360ED77E080E090E00E94270206
:100CA00062E08091C9010E94D1012FB7F894809130
:100CB000230190912401A0912501B09126012FBF1D
:100CC000805D9740A109B1098093CD019093CE0139
:100CD000A093CF01B093D00187E38093D601C0E009
:100CE000D0E00E945902882341F08091CA018C30E3
:100CF00009F462C048F48B3001F1C12CD12C90EC86
:100D0000E92E9FE7F92E43C085518230B0F710914C
:100D1000C601612F70E0762F662766277F77809166
:100D2000C701682B90E080E00E945F082DEC3CEC4E
:100D30004CEC5DE30E9416095BC06091C60170E057
:100D400090E080E00E945F086B017C011091C70178
:100D500017FF0AC0AC019B0160E070E080E89FEBE8
:100D60000E944C076B017C011F70612F70E090E0C6
:100D700080E00E9461082DEC3CEC4CEC5DE30E94AD
:100D80001609A70196010E944D076B017C010E9484
:100D90005902882351F08091CA018B3030F08D3098
:100DA00080F18551823008F465C0812C912C80EC53
:100DB000A82E8FE7B82E43C01091C601612F70E0B6
:100DC00090E080E00E945F086B017C016091C701A8
:100DD0006F7070E090E080E00E9461082DEC3CECC8
:100DE0004CEC5DE30E941609A70196010E944D0795
:100DF0006B017C0117FFCBCFF7FAF094F7F8F09472
:100E0000C6CF6091C50170E090E080E00E9461086B
:100E10002DEC3CEC4CEC5DE30E9416094B015C01AF
:100E20006091C40170E090E080E00E9461089B0145
:100E3000AC01C501B4010E944D074B015C0142E0C9
:100E4000C701B6010E94070442E0C501B4010E9437
:100E5000070460ED77E080E090E00E942702209791
:100E600009F43FCF0E942E01882309F43ACF0E9453
:100E7000000037CF6091C4017091C50176276727C4
:100E8000762790E080E00E945F082DEC3CEC4CEC73
:100E90005DE30E941609D1CF5058BB27AA270E94B4
:100EA00064070C94D7080E94C90838F00E94D00843
:100EB00020F039F49F3F19F426F40C94C6080EF480
:100EC000E095E7FB0C94C008E92F0E94E80858F36E
:100ED000BA17620773078407950720F079F4A6F51F
:100EE0000C940A090EF4E0950B2EBA2FA02D0B01DD
:100EF000B90190010C01CA01A0011124FF27591B5F
:100F000099F0593F50F4503E68F11A16F040A22F64
:100F1000232F342F4427585FF3CF469537952795D5
:100F2000A795F0405395C9F77EF41F16BA0B620BD4
:100F3000730B840BBAF09150A1F0FF0FBB1F661F1B
:100F4000771F881FC2F70EC0BA0F621F731F841F5E
:100F500048F4879577956795B795F7959E3F08F084
:100F6000B0CF9395880F08F09927EE0F9795879546
:100F700008950E949C0808F481E008950E94D20719
:100F80000C94D7080E94D00858F00E94C90840F07D
:100F900029F45F3F29F00C94C00851110C940B09FF
:100FA0000C94C6080E94E80868F39923B1F355230E
:100FB00091F3951B550BBB27AA276217730784076C
:100FC00038F09F5F5F4F220F331F441FAA1FA9F302
:100FD00035D00E2E3AF0E0E832D091505040E695F0
:100FE000001CCAF72BD0FE2F29D0660F771F881F51
:100FF000BB1F261737074807AB07B0E809F0BB0B44
:10100000802DBF01FF2793585F4F3AF09E3F510557
:1010100078F00C94C0080C940B095F3FE4F3983E01
:10102000D4F3869577956795B795F7959F5FC9F740
:10103000880F911D9695879597F90895E1E0660FC1
:10104000771F881FBB1F621773078407BA0720F03A
:10105000621B730B840BBA0BEE1F88F7E0950895A3
:101060000E94F00888F09F5798F0B92F9927B75140
:10107000B0F0E1F0660F771F881F991F1AF0BA953C
:10108000C9F714C0B13091F00E940A09B1E0089587
:101090000C940A09672F782F8827B85F39F0B93F79
:1010A000CCF3869577956795B395D9F73EF49095EF
:1010B0008095709561957F4F8F4F9F4F0895E8946D
:1010C00009C097FB3EF490958095709561957F4F90
:1010D0008F4F9F4F9923A9F0F92F96E9BB2793953E
:1010E000F695879577956795B795F111F8CFFAF44E
:1010F000BB0F11F460FF1BC06F5F7F4F8F4F9F4F7F
:1011000016C0882311F096E911C0772321F09EE8DC
:10111000872F762F05C0662371F096E8862F70E042
:1011200060E02AF09A95660F771F881FDAF7880F1C
:101130009695879597F90895990F0008550FAA0B72
:10114000E0E8FEEF16161706E807F907C0F01216DA
:101150001306E407F50798F0621B730B840B950BDD
:1011600039F40A2661F0232B242B252B21F4089532
:101170000A2609F4A140A6958FEF811D811D0895CF
:1011800097F99F6780E870E060E008959FEF80EC3A
:10119000089500240A9416161706180609060895DD
:1011A00000240A9412161306140605060895092E43
:1011B0000394000C11F4882352F0BB0F40F4BF2BB2
:1011C00011F460FF04C06F5F7F4F8F4F9F4F0895F2
:1011D00057FD9058440F551F59F05F3F71F04795E8
:1011E000880F97FB991F61F09F3F79F087950895CD
:1011F000121613061406551FF2CF4695F1DF08C0EC
:10120000161617061806991FF1CF86957105610508
:1012100008940895E894BB2766277727CB0197F9B0
:1012200008950E949C0808F48FEF08950E942909F0
:101230000C94D7080E94C90838F00E94D00820F00A
:10124000952311F00C94C0080C94C60811240C943A
:101250000B090E94E80870F3959FC1F3950F50E0C9
:10126000551F629FF001729FBB27F00DB11D639F58
:10127000AA27F00DB11DAA1F649F6627B00DA11DFE
:10128000661F829F2227B00DA11D621F739FB00DA4
:10129000A11D621F839FA00D611D221F749F332714
:1012A000A00D611D231F849F600D211D822F762FAD
:1012B0006A2F11249F5750409AF0F1F088234AF08A
:1012C000EE0FFF1FBB1F661F771F881F91505040F6
:1012D000A9F79E3F510580F00C94C0080C940B09AF
:1012E0005F3FE4F3983ED4F3869577956795B7957D
:1012F000F795E7959F5FC1F7FE2B880F911D969597
:10130000879597F908950E949C08880B990B08957A
:10131000A1E21A2EAA1BBB1BFD010DC0AA1FBB1FF9
:10132000EE1FFF1FA217B307E407F50720F0A21B6B
:10133000B30BE40BF50B661F771F881F991F1A94D8
:1013400069F760957095809590959B01AC01BD0102
:10135000CF010895EE0FFF1F0590F491E02D099441
:04136000F894FFCF2F
:10136400000000006401C400F100B1012201000189
:0E13740014016E616E00696E66006F76660091
:107E0000112484B714BE81FFF0D085E080938100F7
:107E100082E08093C00088E18093C10086E0809377
:107E2000C20080E18093C4008EE0C9D0259A86E02C
:107E300020E33CEF91E0309385002093840096BBD3
:107E4000B09BFECF1D9AA8958150A9F7CC24DD24C4
:107E500088248394B5E0AB2EA1E19A2EF3E0BF2EE7
:107E6000A2D0813461F49FD0082FAFD0023811F036
:107E7000013811F484E001C083E08DD089C08234E0
:107E800011F484E103C0853419F485E0A6D080C0E4
:107E9000853579F488D0E82EFF2485D0082F10E0AE
:107EA000102F00270E291F29000F111F8ED06801E7
:107EB0006FC0863521F484E090D080E0DECF843638
:107EC00009F040C070D06FD0082F6DD080E0C81688
:107ED00080E7D80618F4F601B7BEE895C0E0D1E017
:107EE00062D089930C17E1F7F0E0CF16F0E7DF06D8
:107EF00018F0F601B7BEE89568D007B600FCFDCFD4
:107F0000A601A0E0B1E02C9130E011968C91119780
:107F100090E0982F8827822B932B1296FA010C0160
:107F200087BEE89511244E5F5F4FF1E0A038BF0790
:107F300051F7F601A7BEE89507B600FCFDCF97BE46
:107F4000E89526C08437B1F42ED02DD0F82E2BD052
:107F50003CD0F601EF2C8F010F5F1F4F84911BD097
:107F6000EA94F801C1F70894C11CD11CFA94CF0C13
:107F7000D11C0EC0853739F428D08EE10CD085E9AC
:107F80000AD08FE07ACF813511F488E018D01DD067
:107F900080E101D065CF982F8091C00085FFFCCF94
:107FA0009093C60008958091C00087FFFCCF809118
:107FB000C00084FD01C0A8958091C6000895E0E648
:107FC000F0E098E1908380830895EDDF803219F02E
:107FD00088E0F5DFFFCF84E1DECF1F93182FE3DFCA
:107FE0001150E9F7F2DF1F91089580E0E8DFEE27F6
:047FF000FF270994CA
:027FFE00040479
:0400000300007E007B
:00000001FF